:0400000007EF00F016
:0A0008006D82BCED08F0A2EF0BF0D2
:10100000003738392F3435362A3132332D23303DED
:051010002B2569000022
:10101600010E6B6E63506410D8B414EF08F016EF2F
:1010260008F036EF08F063C0D9FF64C0DAFFDF507E
:10103600070B656E050E656023EF08F025EF08F0D7
:1010460036EF08F063C0D9FF64C0DAFFDF30E8325C
:10105600E832070B656E070E656434EF08F036EF6D
:1010660008F099EF08F0000E6B6EBAEF08F063C057
:10107600D9FF64C0DAFFDF30E832E832070B656E6D
:10108600010E666E652A4AEF08F0D8906636652E20
:1010960048EF08F06650FF0A676E63C0D9FF64C068
:1010A600DAFFDF50070B686E6850020D150EF32449
:1010B600D96E000EF420DA6EDECF69F0DDCF6AF06D
:1010C60069C0D9FF6AC0DAFF6750DF16BAEF08F0C9
:1010D60063C0D9FF64C0DAFFDF30E832E832070BBD
:1010E600656E010E666E652A7BEF08F0D89066364F
:1010F600652E79EF08F063C0D9FF64C0DAFFDF50D0
:10110600070B676E6750020D150EF324D96E000E9D
:10111600F420DA6EDECF68F0DDCF69F068C0D9FF63
:1011260069C0DAFF6650DF12BAEF08F063C0D9FF74
:1011360064C0DAFFDFBCA2EF08F0A5EF08F0010EED
:10114600A6EF08F0000E656E666A6650000AD8B40F
:10115600AFEF08F036EF08F06550000AD8B43AEF62
:1011660008F0010AD8B46BEF08F036EF08F06B50C0
:1011760012000600FACF5DF0FBCF5EF0D9CF5FF02C
:10118600DACF60F0F3CF61F0F4CF62F0F2A8CEEFE1
:1011960008F0D0EF08F0D9EF08F0F2A2D5EF08F08A
:1011A600D7EF08F0D9EF08F05DEC0CF0F0A6DEEF13
:1011B60008F0E0EF08F0E9EF08F0F0A0E5EF08F03E
:1011C600E7EF08F0E9EF08F05BEC0CF0F0A8EEEFC3
:1011D60008F0F0EF08F0F9EF08F0F0A2F5EF08F0EC
:1011E600F7EF08F0F9EF08F059EC0CF0F2A6FEEF75
:1011F60008F000EF09F010EF09F0F2A005EF09F092
:1012060007EF09F010EF09F081A80CEF09F00EEFD7
:1012160009F010EF09F01CEC0CF0F2A615EF09F03E
:1012260017EF09F027EF09F0F2A01CEF09F01EEF07
:1012360009F027EF09F081AA23EF09F025EF09F05D
:1012460027EF09F005EC0CF0F2A62CEF09F02EEFD3
:1012560009F03EEF09F0F2A033EF09F035EF09F09F
:101266003EEF09F081AC3AEF09F03CEF09F03EEFB2
:1012760009F0EEEC0BF0F2A643EF09F045EF09F0AA
:1012860055EF09F0F2A04AEF09F04CEF09F055EFDF
:1012960009F081AE51EF09F053EF09F055EF09F06F
:1012A600D7EC0BF062C0F4FF61C0F3FF60C0DAFF59
:1012B6005FC0D9FF5EC0FBFF5DC0FAFF6D921100F3
:1012C600010E6C6E63506410D8B46CEF09F06EEFCB
:1012D60009F08EEF09F063C0D9FF64C0DAFFDF5072
:1012E600070B666E050E66607BEF09F07DEF09F071
:1012F6008EEF09F063C0D9FF64C0DAFFDF30E83251
:10130600E832070B666E070E66648CEF09F08EEF07
:1013160009F0F1EF09F0000E6C6E06EF0AF063C0FB
:10132600D9FF64C0DAFFDF30E832E832070B666EB9
:10133600010E676E662AA2EF09F0D8906736662E10
:10134600A0EF09F06750FF0A686E63C0D9FF64C05A
:10135600DAFFDF50070B696E6950020D0B0EF3249E
:10136600D96E000EF420DA6EDECF6AF0DDCF6BF0B8
:101376006AC0D9FF6BC0DAFF6850DF1606EF0AF0C5
:1013860063C0D9FF64C0DAFFDF30E832E832070B0A
:10139600666E010E676E662AD3EF09F0D89067363F
:1013A600662ED1EF09F063C0D9FF64C0DAFFDF50C3
:1013B600070B686E6850020D0B0EF324D96E000EF3
:1013C600F420DA6EDECF69F0DDCF6AF069C0D9FFAE
:1013D6006AC0DAFF6750DF1206EF0AF06550666EE4
:1013E600676A6750000AD8B4FBEF09F08EEF09F080
:1013F6006650000AD8B492EF09F0010AD8B4C3EFD8
:1014060009F08EEF09F06C50120000018051811135
:10141600D8A410EF0AF012EF0AF016EF0AF0000E49
:101426006C6E79EF0AF0F296F290F28EF28C020E62
:101436008025636E000E8121646E0BEC08F06C6EE5
:1014460051EF0AF080C0D9FF81C0DAFFDECF3AF053
:10145600DDCF3BF078EF0AF080C0D9FF81C0DAFF1C
:10146600DECF38F0DDCF39F078EF0AF080C0D9FF53
:1014760081C0DAFFDECF36F0DDCF37F078EF0AF045
:1014860080C0D9FF81C0DAFFDECF34F0DDCF35F082
:1014960078EF0AF0000E6C6E78EF0AF0000120EE8D
:1014A60002F08051D9268151DA22DF30E832E83263
:1014B600070B826F836B8351000AD8B465EF0AF07D
:1014C6004DEF0AF08251040AD8B425EF0AF0010A5A
:1014D600D8B42FEF0AF0030AD8B439EF0AF0010A9C
:1014E600D8B443EF0AF04DEF0AF0F2866C501200C2
:1014F60051505210D8B482EF0AF084EF0AF0A4EFEC
:101506000AF051C0D9FF52C0DAFFDF50070B536E05
:10151600050E536091EF0AF093EF0AF0A4EF0AF07C
:1015260051C0D9FF52C0DAFFDF30E832E832070B8C
:10153600536E070E5364A2EF0AF0A4EF0AF0A6EF6B
:101546000AF0D2EF0AF051C0D9FF52C0DAFFDF30FD
:10155600E832E832070B536E010E546E532AB6EF8B
:101566000AF0D8905436532EB4EF0AF051C0D9FF82
:1015760052C0DAFFDF50070B556E5550020D0B0EA9
:10158600F324D96E000EF420DA6EDECF56F0DDCFEE
:1015960057F056C0D9FF57C0DAFF5450DF1A120071
:1015A600010E0001836F80518111D8A4DDEF0AF08E
:1015B600DFEF0AF0E3EF0AF0000E836F20EF0BF087
:1015C60048C084F080C0D9FF81C0DAFFDF500F0B1E
:1015D600826F84518219F80B8219846F80C0D9FFFB
:1015E60081C0DAFFDF38070B826F82478247824766
:1015F60084518219C70B8219846F849D80C0D9FFDC
:1016060081C0DAFFDFAE02D0848F02D00001849F52
:10161600840E636E000E646E0BEC08F0840E636E2F
:10162600000E646E80C0D9FF81C0DAFF0001000E93
:10163600DFBE010E656E63EC09F0000183511200F6
:10164600330E0001806F000E816FD3EC0AF01F6E1F
:10165600320E0001806F000E816FD3EC0AF01F6E10
:101666002C0E0001806F000E816F08EC0AF01F6ED1
:10167600280E0001806F000E816F08EC0AF01F6EC5
:10168600240E0001806F000E816F08EC0AF01F6EB9
:10169600200E0001806F000E816F08EC0AF01F6EAD
:1016A600310E0001806F000E816FD3EC0AF01F6EC1
:1016B600300E0001806F000E816FD3EC0AF01F6EB2
:1016C6001200010E5B6E58505910D8A46DEF0BF046
:1016D6006FEF0BF073EF0BF0000E5B6EA0EF0BF0ED
:1016E60045C05CF058C0D9FF59C0DAFFDF500F0B78
:1016F6005A6E5C505A18F80B5A185C6E58C0D9FFCF
:1017060059C0DAFFDF38070B5A6E5A465A465A4610
:101716005C505A18C70B5A185C6E5C9C58C0D9FFAF
:1017260059C0DAFFDFAE02D05C8E01D05C9E5C0E43
:10173600516E000E526E7BEC0AF05B5012007A0E70
:10174600F66E170EF76E000EF86E00EE01F010EE54
:1017560033F00900F5CFEEFFE550E150FAE100EE77
:1017660034F01D0EEE6AE806FDE16D906D92000103
:1017760053EF0CF0800F810F820F830F840F890FB8
:101786008A0F8B0F8C0F8D0F920F930F940F950F5F
:10179600960F01961879006618710076186900860A
:0717A600186100322212025B
:1017AE00F29034503510D8B4DFEF0BF0E1EF0BF0C0
:1017BE00EDEF0BF002D8EDEF0BF00500FA6E3450A2
:1017CE00FD6E3550FE6EFF6AFA5012001200F29056
:1017DE0036503710D8B4F6EF0BF0F8EF0BF004EFED
:1017EE000CF002D804EF0CF00500FA6E3650FD6EC8
:1017FE003750FE6EFF6AFA5012001200F290385007
:10180E003910D8B40DEF0CF00FEF0CF01BEF0CF0FD
:10181E0002D81BEF0CF00500FA6E3850FD6E3950F1
:10182E00FE6EFF6AFA5012001200F2903A503B1010
:10183E00D8B424EF0CF026EF0CF032EF0CF002D8F7
:10184E0032EF0CF00500FA6E3A50FD6E3B50FE6E14
:10185E00FF6AFA5012001200310E586E000E596EC9
:10186E0064EC0BF01F6E1200320E586E000E596EA5
:10187E0064EC0BF01F6E1200330E586E000E596E94
:10188E0064EC0BF01F6E1200300E586E000E596E87
:10189E0064EC0BF01F6E120023EC0BF055EF0CF006
:1018AE0007EF00F0F0921200F0901200F292120088
:020000040020DA
:08000000FFFFFFFFFFFFFFFF00
:020000040030CA
:0E000000FF071F1FFF8185FF0FC00FE00F409D
:00000001FF
