:0400000007EF00F016
:0A0008006B82C6ED0AF062EF0CF007
:10100000003738392F3435362A3132332D23303DED
:051010002B2569000022
:10101600010E4F6E47504810D8B414EF08F016EF83
:1010260008F036EF08F047C0D9FF48C0DAFFDF50B6
:10103600070B496E050E496023EF08F025EF08F00F
:1010460036EF08F047C0D9FF48C0DAFFDF30E83294
:10105600E832070B496E070E496434EF08F036EFA5
:1010660008F099EF08F0000E4F6EBAEF08F047C08F
:10107600D9FF48C0DAFFDF30E832E832070B496EA5
:10108600010E4A6E492A4AEF08F0D8904A36492E90
:1010960048EF08F04A50FF0A4B6E47C0D9FF48C0D8
:1010A600DAFFDF50070B4C6E4C50020D150EF32481
:1010B600D96E000EF420DA6EDECF4DF0DDCF4EF0A5
:1010C6004DC0D9FF4EC0DAFF4B50DF16BAEF08F01D
:1010D60047C0D9FF48C0DAFFDF30E832E832070BF5
:1010E600496E010E4A6E492A7BEF08F0D8904A36BF
:1010F600492E79EF08F047C0D9FF48C0DAFFDF5024
:10110600070B4B6E4B50020D150EF324D96E000ED5
:10111600F420DA6EDECF4CF0DDCF4DF04CC0D9FFB7
:101126004DC0DAFF4A50DF12BAEF08F047C0D9FFC8
:1011360048C0DAFFDFBCA2EF08F0A5EF08F0010E09
:10114600A6EF08F0000E496E4A6A4A50000AD8B463
:10115600AFEF08F036EF08F04950000AD8B43AEF7E
:1011660008F0010AD8B46BEF08F036EF08F04F50DC
:101176001200010E506E47504810D8B4C5EF08F063
:10118600C7EF08F0E7EF08F047C0D9FF48C0DAFF1D
:10119600DF50070B4A6E050E4A60D4EF08F0D6EF13
:1011A60008F0E7EF08F047C0D9FF48C0DAFFDF30A4
:1011B600E832E832070B4A6E070E4A64E5EF08F09C
:1011C600E7EF08F04AEF09F0000E506E5FEF09F006
:1011D60047C0D9FF48C0DAFFDF30E832E832070BF4
:1011E6004A6E010E4B6E4A2AFBEF08F0D8904B363A
:1011F6004A2EF9EF08F04B50FF0A4C6E47C0D9FF54
:1012060048C0DAFFDF50070B4D6E4D50020D0B0E36
:10121600F324D96E000EF420DA6EDECF4EF0DDCF69
:101226004FF04EC0D9FF4FC0DAFF4C50DF165FEFCC
:1012360009F047C0D9FF48C0DAFFDF30E832E832AC
:10124600070B4A6E010E4B6E4A2A2CEF09F0D89016
:101256004B364A2E2AEF09F047C0D9FF48C0DAFFBD
:10126600DF50070B4C6E4C50020D0B0EF324D96E5B
:10127600000EF420DA6EDECF4DF0DDCF4EF04DC01D
:10128600D9FF4EC0DAFF4B50DF125FEF09F049502D
:101296004A6E4B6A4B50000AD8B454EF09F0E7EF98
:1012A60008F04A50000AD8B4EBEF08F0010AD8B4A7
:1012B6001CEF09F0E7EF08F050501200010E4B6EDC
:1012C60047504810D8A46AEF09F06CEF09F0ACEF6C
:1012D60009F0000E4B6ECBEF09F020EE03F04750FD
:1012E600D9264850DA22DE04D8A47CEF09F07EEF36
:1012F60009F081EF09F0F18CCBEF09F0F19CCBEF0F
:1013060009F020EE03F04750D9264850DA22DE04D1
:10131600D8A490EF09F092EF09F095EF09F0F18A61
:10132600CBEF09F0F19ACBEF09F020EE03F047502E
:10133600D9264850DA22DE04D8A4A4EF09F0A6EF95
:1013460009F0A9EF09F0F188CBEF09F0F198CBEF9E
:1013560009F020EE04F04750D9264850DA22DF5033
:10136600496E4A6A4A50000AD8B4BCEF09F06CEFDD
:1013760009F04950000AD8B470EF09F0010AD8B450
:1013860084EF09F0030AD8B498EF09F06CEF09F07E
:101396004B50120035503610D8B4D4EF09F0D6EFC2
:1013A60009F0F6EF09F035C0D9FF36C0DAFFDF5095
:1013B600070B376E050E3760E3EF09F0E5EF09F02E
:1013C600F6EF09F035C0D9FF36C0DAFFDF30E83274
:1013D600E832070B376E070E3764F4EF09F0F6EFC5
:1013E60009F0F8EF09F024EF0AF035C0D9FF36C04E
:1013F600DAFFDF30E832E832070B376E010E386E5F
:10140600372A08EF0AF0D8903836372E06EF0AF05A
:1014160035C0D9FF36C0DAFFDF50070B396E3950B9
:10142600020D0B0EF324D96E000EF420DA6EDECF19
:101436003AF0DDCF3BF03AC0D9FF3BC0DAFF385077
:10144600DF1A12004A504B10D8A42CEF0AF02EEFE8
:101456000AF059EF0AF0000E4E6E78EF0AF04AC015
:10146600D9FF4BC0DAFFDECF47F0DDCF48F01EECE8
:101476000DF04E6E78EF0AF04AC0D9FF4BC0DAFF86
:10148600DECF47F0DDCF48F009EC0DF04E6E78EF79
:101496000AF04AC0D9FF4BC0DAFFDECF47F0DDCFF6
:1014A60048F0F4EC0CF04E6E78EF0AF020EE04F003
:1014B6004A50D9264B50DA22DF504C6E4D6A4D50B9
:1014C600000AD8B469EF0AF02EEF0AF04C50000A71
:1014D600D8B432EF0AF0010AD8B43FEF0AF0030A93
:1014E600D8B44CEF0AF02EEF0AF04E501200010E5F
:1014F600546E51505210D8A483EF0AF085EF0AF0CB
:1015060089EF0AF0000E546EC4EF0AF062C055F07F
:1015160051C0D9FF52C0DAFFDF500F0B536E555042
:101526005318F80B5318556E51C0D9FF52C0DAFF45
:10153600DF38070B536E53465346534655505318E0
:10154600C70B5318556E559C51C0D9FF52C0DAFFD0
:10155600DFAE02D0558E01D0559E550E476E000E59
:10156600486E0BEC08F0550E476E000E486E51C0E3
:10157600D9FF52C0DAFF000EDFBE010E496EBCEC89
:1015860008F0545012000600FACF41F0FBCF42F0AB
:10159600D9CF43F0DACF44F0F3CF45F0F4CF46F09D
:1015A600F2A8D8EF0AF0DAEF0AF0E3EF0AF0F2A2B7
:1015B600DFEF0AF0E1EF0AF0E3EF0AF0DDEC0CF002
:1015C600F0A6E8EF0AF0EAEF0AF0F3EF0AF0F0A06F
:1015D600EFEF0AF0F1EF0AF0F3EF0AF0C6EC0CF0C9
:1015E600F0A8F8EF0AF0FAEF0AF003EF0BF0F0A21A
:1015F600FFEF0AF001EF0BF003EF0BF0AFEC0CF08E
:1016060046C0F4FF45C0F3FF44C0DAFF43C0D9FF2C
:1016160042C0FBFF41C0FAFF6B921100010E4B6EF8
:1016260047504810D8A41AEF0BF01CEF0BF02FEF21
:101636000BF0000E4B6E4EEF0BF0F28EF28CF28832
:101646004EEF0BF0F28EF28CF0864EEF0BF0F28E30
:10165600F28CF0884EEF0BF020EE04F04750D926BE
:101666004850DA22DF50496E4A6A4A50000AD8B416
:101676003FEF0BF01CEF0BF04950000AD8B420EFF7
:101686000BF0010AD8B425EF0BF0030AD8B42AEF01
:101696000BF01CEF0BF04B501200010E3F6E3C504E
:1016A6003D10D8A459EF0BF05BEF0BF05FEF0BF09A
:1016B600000E3F6E8CEF0BF05FC040F03CC0D9FFD0
:1016C6003DC0DAFFDF500F0B3E6E40503E18F80B60
:1016D6003E18406E3CC0D9FF3DC0DAFFDF38070B2D
:1016E6003E6E3E463E463E4640503E18C70B3E18AE
:1016F600406E409C3CC0D9FF3DC0DAFFDFAE02D051
:10170600408E01D0409E400E356E000E366ECDECFA
:1017160009F03F501200010E4B6E47504810D8A4F6
:1017260097EF0BF099EF0BF0A6EF0BF0000E4B6E58
:10173600C5EF0BF0F298C5EF0BF0F096C5EF0BF086
:10174600F098C5EF0BF020EE04F04750D92648502C
:10175600DA22DF50496E4A6A4A50000AD8B4B6EF18
:101766000BF099EF0BF04950000AD8B49DEF0BF03F
:10177600010AD8B4A0EF0BF0030AD8B4A3EF0BF01C
:1017860099EF0BF04B501200010E4B6E475048106C
:10179600D8A4D0EF0BF0D2EF0BF0DFEF0BF0000E7A
:1017A6004B6EFEEF0BF0F292FEEF0BF0F090FEEFB9
:1017B6000BF0F092FEEF0BF020EE04F04750D92626
:1017C6004850DA22DF50496E4A6A4A50000AD8B4B5
:1017D600EFEF0BF0D2EF0BF04950000AD8B4D6EF7A
:1017E6000BF0010AD8B4D9EF0BF0030AD8B4DCEF3A
:1017F6000BF0D2EF0BF04B50120053505410D8A4FC
:1018060007EF0CF009EF0CF00DEF0CF0000E556E23
:1018160035EF0CF053C047F054C048F08EEC0BF097
:10182600556E53C047F054C048F0C7EC0BF0556EE8
:1018360053C047F054C048F061EC09F0556E53C0F0
:1018460050F054C051F097EC0CF053C04AF054C01D
:101856004BF025EC0AF053C047F054C048F011ECA9
:101866000BF0556E555012002C0E536E000E546E32
:1018760000EC0CF01F6E340E516E000E526E7AECB8
:101886000AF01F6E260E536E000E546E00EC0CF01E
:101896001F6E330E516E000E526E7AEC0AF01F6EFA
:1018A600200E536E000E546E00EC0CF01F6E320EBE
:1018B600516E000E526E7AEC0AF01F6E1200FA0E8E
:1018C600F66E180EF76E000EF86E00EE01F010EED2
:1018D60034F00900F5CFEEFFE550E150FAE100EEF5
:1018E60056F0150EEE6AE806FDE16B906B9200016C
:1018F6004BEF0DF0800F810F820F830F840F890F3E
:101906008A0F8B0F8C0F8D0F920F930F940F950FDD
:10191600960F01861A51010201661A4900010176E5
:101926001A4101000122120250505110D8A49EEF14
:101936000CF0A0EF0CF0A4EF0CF0000E526EADEF21
:101946000CF0020E5024476E000E5120486E0BEC30
:1019560008F0526E52501200F09256505710D8B4FA
:10196600B7EF0CF0B9EF0CF0C5EF0CF002D8C5EFED
:101976000CF00500FA6E5650FD6E5750FE6EFF6A6B
:10198600FA5012001200F09058505910D8B4CEEF09
:101996000CF0D0EF0CF0DCEF0CF002D8DCEF0CF022
:1019A6000500FA6E5850FD6E5950FE6EFF6AFA50E9
:1019B60012001200F2925A505B10D8B4E5EF0CF008
:1019C600E7EF0CF0F3EF0CF002D8F3EF0CF00500A4
:1019D600FA6E5A50FD6E5B50FE6EFF6AFA501200A8
:1019E6001200010E496E47504810D8A4FDEF0CF0C6
:1019F600FFEF0CF003EF0DF0000E496E07EF0DF050
:101A060047C056F048C057F049501200010E496EC3
:101A160047504810D8A412EF0DF014EF0DF018EF50
:101A26000DF0000E496E1CEF0DF047C058F048C08F
:101A360059F049501200010E496E47504810D8A47B
:101A460027EF0DF029EF0DF02DEF0DF0000E496E8A
:101A560031EF0DF047C05AF048C05BF04950120014
:101A6600330E3C6E000E3D6E50EC0BF01F6E1200F6
:101A7600340E3C6E000E3D6E50EC0BF01F6E1200E5
:101A8600320E3C6E000E3D6E50EC0BF01F6E1200D7
:0C1A960037EC0CF04DEF0DF007EF00F006
:020000040020DA
:08000000FFFFFFFFFFFFFFFF00
:020000040030CA
:0E000000FF071F1FFF8185FF0FC00FE00F409D
:00000001FF
